:020000040800F2
:1000000000000220810900082D0D0008390D0008AC
:10001000410D0008490D0008510D000800000000C6
:10002000000000000000000000000000590D000862
:10003000650D000800000000710D00087D0D00082E
:10004000D1090008D1090008D1090008D109000828
:10005000D1090008D1090008D1090008D109000818
:10006000D1090008D1090008D1090008D109000808
:10007000D1090008D1090008D1090008D1090008F8
:10008000494B0008D1090008D1090008D10900082E
:10009000D1090008D1090008D1090008D1090008D8
:1000A000D1090008D1090008D1090008D1090008C8
:1000B000D1090008D1090008D1090008D1090008B8
:1000C000D1090008D1090008D1090008D1090008A8
:1000D000D1090008E5430008D1090008D10900084A
:1000E000D1090008D1090008D1090008D109000888
:1000F000D1090008D1090008D1090008D109000878
:10010000D1090008D1090008D1090008D109000867
:10011000D1090008D1090008D1090008D109000857
:10012000890D0008D1090008D1090008D10900088B
:10013000D1090008D1090008D1090008D109000837
:10014000D1090008D1090008D1090008D109000827
:10015000D1090008D1090008D1090008D109000817
:10016000D1090008D1090008D1090008D109000807
:10017000D1090008D1090008D109000800000000D9
:08018000D1090008D1090008B3
:1001880070B54FF0FF0C4CF4E06C1CEA11541DBF25
:100198001CEA135594EA0C0F95EA0C0F00F0DEF8F0
:1001A8002C4481EA030621EA4C5123EA4C5350EAD5
:1001B800013518BF52EA033541F4801143F4801326
:1001C80038D0A0FB02CE4FF00005E1FB02E506F0B7
:1001D8000042E0FB03E54FF00006E1FB03569CF00C
:1001E800000F18BF4EF0010EA4F1FF04B6F5007F12
:1001F80064F5407404D25FEA4E0E6D4146EB060684
:1002080042EAC62141EA55514FEAC52040EA5E500C
:100218004FEACE2EB4F1FD0C88BFBCF5E06F1ED8B6
:10022800BEF1004F08BF5FEA500E50F1000041EBED
:10023800045170BD06F0004646EA010140EA02009A
:1002480081EA0301B4EB5C04C2BFD4EB0C0541EABC
:10025800045170BD41F480114FF0000E013C00F3D1
:10026800AB8014F1360FDEBF002001F0004170BDF5
:10027800C4F10004203C35DA0C341BDC04F114040E
:10028800C4F1200500FA05F320FA04F001FA05F29A
:1002980040EA020001F0004221F0004110EBD37067
:1002A80021FA04F642EB06015EEA430E08BF20EA93
:1002B800D37070BDC4F10C04C4F1200500FA04F336
:1002C80020FA05F001FA04F240EA020001F00041C8
:1002D80010EBD37041F100015EEA430E08BF20EA3B
:1002E800D37070BDC4F1200500FA05F24EEA020E83
:1002F80020FA04F301FA05F243EA020321FA04F0B2
:1003080001F0004121FA04F220EA020000EBD37068
:100318005EEA430E08BF20EAD37070BD94F0000F68
:100328000FD101F00046400041EB010111F4801F9C
:1003380008BF013CF7D041EA060195F0000F18BF4D
:10034800704703F00046520043EB030313F4801F89
:1003580008BF013DF7D043EA0603704794EA0C0F43
:100368000CEA135518BF95EA0C0F0CD050EA410659
:1003780018BF52EA4306D1D181EA030101F00041D6
:100388004FF0000070BD50EA410606BF10461946FE
:1003980052EA430619D094EA0C0F02D150EA01360A
:1003A80013D195EA0C0F05D152EA03361CBF10464B
:1003B80019460AD181EA030101F0004141F0FE41EA
:1003C80041F470014FF0000070BD41F0FE4141F46E
:1003D800780170BD81F0004102E000BF83F0004366
:1003E80030B54FEA41044FEA430594EA050F08BFC8
:1003F80090EA020F1FBF54EA000C55EA020C7FEA8C
:10040800645C7FEA655C00F0E2804FEA5454D4EB08
:100418005555B8BF6D420CDD2C4480EA020281EAD2
:10042800030382EA000083EA010180EA020281EA0A
:100438000303362D88BF30BD11F0004F4FEA01315C
:100448004FF4801C4CEA113102D0404261EB41016B
:1004580013F0004F4FEA03334CEA133302D05242F1
:1004680063EB430394EA050F00F0A780A4F10104AD
:10047800D5F1200E0DDB02FA0EFC22FA05F28018E7
:1004880041F1000103FA0EF2801843FA05F35941CD
:100498000EE0A5F120050EF1200E012A03FA0EFC4C
:1004A80028BF4CF0020C43FA05F3C01851EBE37176
:1004B80001F0004507D54FF0000EDCF1000C7EEB93
:1004C80000006EEB0101B1F5801F1BD3B1F5001FD1
:1004D8000CD349085FEA30004FEA3C0C04F10104F0
:1004E8004FEA445212F5800F80F09A80BCF1004F19
:1004F80008BF5FEA500C50F1000041EB045141EA9B
:10050800050130BD5FEA4C0C404141EB0101013C63
:1005180028BFB1F5801FE9D291F0000F04BF014652
:100528000020B1FA81F308BF2033A3F10B03B3F124
:1005380020020CDA0C3208DD02F1140CC2F10C02B4
:1005480001FA0CF021FA02F10CE002F11402D8BF12
:10055800C2F1200C01FA02F120FA0CFCDCBF41EADE
:100568000C019040E41AA2BF01EB0451294330BDAD
:100578006FEA04041F3C1CDA0C340EDC04F114048A
:10058800C4F1200220FA04F001FA02F340EA030061
:1005980021FA04F345EA030130BDC4F10C04C4F1A7
:1005A800200220FA02F001FA04F340EA0300294687
:1005B80030BD21FA04F0294630BD94F0000F83F4D1
:1005C800801306BF81F480110134013D4EE77FEAB4
:1005D800645C18BF7FEA655C29D094EA050F08BF00
:1005E80090EA020F05D054EA000C04BF19461046E1
:1005F80030BD91EA030F1EBF0021002030BD5FEA25
:10060800545C05D14000494128BF41F0004130BD4C
:1006180014F580043CBF01F5801130BD01F00045A0
:1006280045F0FE4141F470014FF0000030BD7FEA13
:10063800645C1ABF194610467FEA655C1CBF0B460E
:10064800024650EA013406BF52EA033591EA030F25
:1006580041F4002130BD00BF90F0000F04BF00211D
:10066800704730B54FF4806404F132044FF0000550
:100678004FF0000150E700BF90F0000F04BF0021C9
:10068800704730B54FF4806404F1320410F000452F
:1006980048BF40424FF000013EE700BF42004FEA2A
:1006A800E2014FEA31014FEA02701FBF12F07F43A7
:1006B80093F07F4F81F06051704732F07F4208BF5E
:1006C800704793F07F4F04BF41F40021704730B565
:1006D8004FF4607401F0004521F000411CE700BFB1
:1006E80050EA010208BF704730B54FF000050AE034
:1006F80050EA010208BF704730B511F0004502D535
:10070800404261EB41014FF4806404F132045FEA36
:10071800915C3FF4D8AE4FF003025FEADC0C18BFDF
:1007280003325FEADC0C18BF033202EBDC02C2F1D1
:10073800200300FA03FC20FA02F001FA03FE40EA63
:100748000E0021FA02F11444BDE600BF4A0011D29E
:1007580012F5001211D20DD56FF47873B3EB625213
:100768000ED44FEAC12343F0004343EA505323FA1F
:1007780002F070474FF00000704750EA013002D194
:100788004FF0FF3070474FF0000070474FF0FF3CCC
:1007980006E000BF4FF0010C02E000BF4FF0010C73
:1007A8004DF804CD4FEA410C7FEA6C5C4FEA430CEC
:1007B80018BF7FEA6C5C1BD001B050EA410C0CBF3B
:1007C80052EA430C91EA030F02BF90EA020F00209D
:1007D800704710F1000F91EA030F58BF994208BF04
:1007E80090422CBFD8176FEAE37040F001007047C1
:1007F8004FEA410C7FEA6C5C02D150EA013C07D118
:100808004FEA430C7FEA6C5CD6D152EA033CD3D062
:100818005DF8040B704700BF8446104662468C465C
:100828001946634600E000BF01B5FFF7B7FF00288F
:1008380048BF10F1000F01BD4DF808EDFFF7F4FFB8
:100848000CBF012000205DF808FB00BF4DF808ED43
:10085800FFF7EAFF34BF012000205DF808FB00BF66
:100868004DF808EDFFF7E0FF94BF012000205DF888
:1008780008FB00BF4DF808EDFFF7CEFF94BF01203D
:1008880000205DF808FB00BF4DF808EDFFF7C4FF36
:1008980034BF012000205DF808FB00BF4FEA410289
:1008A80012F5001215D211D56FF47873B3EB6252BA
:1008B80012D94FEAC12343F0004343EA505311F0E1
:1008C800004F23FA02F018BF404270474FF0000073
:1008D800704750EA013005D111F0004008BF6FF0B1
:1008E800004070474FF00000704700BF0348044BBA
:1008F800834202D0034B03B1184770470C00002015
:100908000C000020000000000548064B1B1AD90FF8
:1009180001EBA301491002D0034B03B118477047FC
:100928000C0000200C0000200000000010B5064C50
:10093800237843B9FFF7DAFF044B13B10448AFF348
:1009480000800123237010BD0C000020000000006F
:10095800E060000808B5054B1BB105490548AFF331
:100968000080BDE80840FFF7CFBF00BF00000000CF
:1009780010000020E0600008DFF834D000F00AFA28
:100988000C480D490D4A002302E0D458C4500433E2
:10099800C4188C42F9D30A4A0A4C002301E01360B8
:1009A8000432A242FBD304F021F900F03BF970476E
:1009B80000000220000000200C000020FC6200085B
:1009C8000C0000207C3D0020FEE7000080B582B0CE
:1009D80000AF0346FB71FB79002B0FD0124B1B783D
:1009E800002B17D1104B01221A70104B00221A80CD
:1009F80003F000FF0E4B00221A600BE00A4B1B7835
:100A0800002B07D0084B00221A7003F00DFF084B8B
:100A180001221A60044B1B78184600F0A5F800BFA5
:100A28000837BD4680BD00BF280000202A000020EE
:100A3800A482424280B582B000AF0346FB71084AE7
:100A4800FB791370074B01221A70FB79184604F0E2
:100A580081F8054B00221A6000BF0837BD4680BDEB
:100A68002C00002029000020A882424280B582B0D4
:100A780000AF0346FB71FB79002B05D0084B1B78B0
:100A88001846FFF7D7FF07E0064B00221A7004F05C
:100A98009DF8054B01221A6000BF0837BD4680BD8E
:100AA8002C00002029000020A882424280B584B092
:100AB80000AF78600B467B807B88802B01D9802330
:100AC8007B80274BAA221A70254BBB225A707B8841
:100AD8001B0A9BB2DAB2224B9A707B88DAB2204B9F
:100AE800DA700023FB811CE0FB8902339BB25B00B8
:100AF800BB81FB895B007A6813441B881B0A9AB286
:100B0800BB89D1B2164AD154FB895B007A68134479
:100B18001A88BB890133D1B2114AD154FB890133F8
:100B2800FB81FA897B889A42DED37B8802335B009B
:100B38000B4ACC21D1547B885B000533084ADD2160
:100B4800D1547B8803339BB25B009AB232230449A9
:100B5800044801F035F800BF1037BD4680BD00BF1E
:100B6800300000201002002080B584B000AF03469A
:100B7800FB71AA233B73CC237B730123BB73FB79E3
:100B8800FB7307F10C0164230422034801F018F8F1
:100B980000BF1037BD4680BD1002002080B582B06E
:100BA80000AF0346FB71FB79132B30D0132B32DCDB
:100BB800122B28D0122B2EDC112B20D0112B2ADC43
:100BC800102B18D0102B26DC032B0ED0032B22DC85
:100BD800012B02D0022B04D01DE00120FFF7F6FE06
:100BE80019E00020FFF7F2FE15E00D4B1B781846C0
:100BF800FFF7BAFF0FE00020FFF71CFF0BE0012012
:100C0800FFF718FF07E00220FFF714FF03E00020BA
:100C1800FFF72CFF00BF00BF0837BD4680BD00BFEF
:100C28002800002080B584B000AF00F0E9F8072361
:100C3800022208214FF4A87003F04CFAA82003F010
:100C4800C1FA4FF4E13003F025FB03F0D7FB03F0C2
:100C580009FC42F2107003F001FD642003F0D8FE95
:100C680003F0F0FDB86003F0F7FD0346FB800023B6
:100C7800FB60284B1B881BB2002B0DDA254B1B8809
:100C8800C3F30D03002B04DD234B1B781846FFF735
:100C980085FF204B00221A80002003F029FC034620
:100CA8007B717B79012B09D11C4B1B78002B0CBF66
:100CB80001230023DBB21846FFF788FE7B79042B5B
:100CC80009D1174B1B78002B0CBF01230023DBB283
:100CD8001846FFF7CBFE114B1B78002B16D000F0FF
:100CE800DBF80246FB68D31AC72B0FD900F0D4F8FB
:100CF800F860FB887F2B04D98021B868FFF7D6FEFF
:100D080004E0FB881946B868FFF7D0FE012003F01D
:100D1800A9FAAEE7080200204001002028000020C0
:100D28002900002080B400AF00BFBD4680BC7047DA
:100D380080B400AF00BFFDE780B400AF00BFFDE79F
:100D480080B400AF00BFFDE780B400AF00BFFDE78F
:100D580080B400AF00BFBD4680BC704780B400AF10
:100D680000BFBD4680BC704780B400AF00BFBD4621
:100D780080BC704780B500AF00F080F800BF80BD30
:100D880080B500AF024801F085FF00BF80BD00BFFD
:100D9800D402002080B400AF164BD3F88830154A2F
:100DA80043F47003C2F88830134B1B68124A43F0AF
:100DB80001031360104B00229A600F4B1B680E4A08
:100DC80023F0847323F4803313600B4B0B4A5A606F
:100DD800094B1B68084A23F480231360064B002242
:100DE800DA60044B4FF000629A6000BFBD4680BCD9
:100DF800704700BF00ED00E00038024010300024CA
:100E080080B500AF0B4B1B680A4A43F400731360AC
:100E1800084B1B68074A43F480631360052003F0FE
:100E2800EDF80F2000F00EF800F006F80023184641
:100E380080BD00BF003C024080B400AF00BFBD468B
:100E480080BC704780B582B000AF7860094B1B68E2
:100E5800094AA2FB03239B09184603F012F9002252
:100E680079684FF0FF3003F0D4F8002318460837AC
:100E7800BD4680BD00000020D34D621080B400AF95
:100E8800044B1B680133034A136000BFBD4680BC96
:100E9800704700BF3801002080B400AF024B1B68C8
:100EA8001846BD4680BC70473801002080B400AFAA
:100EB800034B1B681B0C1846BD4680BC704700BF1F
:100EC800002004E080B584B000AF78600023FB7395
:100ED8007B68002B01D1012333E07B681B6C002B5E
:100EE80009D17B6800225A647B68002283F83C2081
:100EF800786803F03DFC7B681B6C03F01003002B43
:100F080018D17B681B6C23F4885323F0020343F049
:100F180002027B681A64786800F074FA7B68002221
:100F28005A647B681B6C23F0030343F001027B685F
:100F38001A6401E00123FB737B68002283F83C20DC
:100F4800FB7B18461037BD4680BD000080B586B0D3
:100F580000AFF860B9607A6000233B61FB6893F8E2
:100F68003C30012B01D10223B0E0FB68012283F859
:100F78003C20FB681B689B6803F00103012B18D019
:100F8800FB681B689A68FB681B6842F001029A605C
:100F9800504B1B68504AA2FB03239A0C13465B0074
:100FA80013443B6102E03B69013B3B613B69002B19
:100FB800F9D1FB681B689B6803F00103002B00F064
:100FC8008480FB681B6C23F4E06323F0010343F483
:100FD8008072FB681A64FB681B685B6803F48063B3
:100FE800002B07D0FB681B6C23F4405343F480525A
:100FF800FB681A64FB681B6C03F48053002B06D053
:10100800FB685B6C23F00602FB685A6402E0FB682D
:1010180000225A64FB68002283F83C202F4B7B6136
:10102800FB689B6B2E4ADA63FB689B6B2D4A1A643C
:10103800FB689B6B2C4ADA64FB681B686FF0220222
:101048001A60FB681B685A68FB681B6842F080627C
:101058005A60FB681B689A68FB681B6842F48072D8
:101068009A60FB68986BFB681B684C331946BA6832
:101078007B6801F01DFD7B695B6803F01F03002B93
:101088000FD1FB681B689B6803F04053002B1CD1F1
:10109800FB681B689A68FB681B6842F080429A608C
:1010A80013E0FB681B68114A93420ED1FB681B686A
:1010B8009B6803F04053002B07D1FB681B689A68B4
:1010C800FB681B6842F080429A6000231846183774
:1010D800BD4680BD0000002083DE1B430023014085
:1010E80025160008CB160008E71600080020014066
:1010F80080B584B000AF78600023FB737B6893F8F9
:101108003C30012B01D1022338E07B68012283F8AF
:101118003C207B681B689A687B681B6822F0010288
:101128009A607B681B689B6803F00103002B20D141
:101138007B681B689A687B681B6822F480729A60D7
:101148007B689B6B184601F013FD0346FB737B68B5
:101158001B685A687B681B6822F080625A607B684B
:101168001B6C23F4885323F0010343F001027B68CE
:101178001A647B68002283F83C20FB7B18461037F2
:10118800BD4680BD80B483B000AF786000BF0C3727
:10119800BD4680BC704780B483B000AF786000BFA4
:1011A8000C37BD4680BC704780B483B000AF786010
:1011B80000BF0C37BD4680BC7047000080B485B0C6
:1011C80000AF786039600023BB607B6893F83C30DF
:1011D800012B01D1022308E17B68012283F83C201E
:1011E8003B681B68092B26D97B681B68D9683B6854
:1011F8001B689BB2A3F10A0213465B001344072243
:1012080002FA03F3DA437B681B680A40DA607B68FA
:101218001B68D9683B6898683B681B689BB2A3F158
:101228000A0213465B00134400FA03F27B681B684A
:101238000A43DA6022E07B681B6819693B681B680F
:101248009BB21A4613465B001344072202FA03F3C3
:10125800DA437B681B680A401A617B681B68196956
:101268003B689A683B681B689BB2184603465B005C
:1012780003449A407B681B680A431A613B685B68B1
:10128800062B24D87B681B68596B3B685B685A1E21
:1012980013469B0013441F2202FA03F3DA437B68C8
:1012A8001B680A405A637B681B68596B3B681B685C
:1012B8009BB218463B685B685A1E13469B00134452
:1012C80000FA03F27B681B680A435A634EE03B68E6
:1012D8005B680C2B24D87B681B68196B3B685B68C0
:1012E800DA1F13469B0013441F2202FA03F3DA4362
:1012F8007B681B680A401A637B681B68196B3B682C
:101308001B689BB218463B685B68DA1F13469B0054
:10131800134400FA03F27B681B680A431A6325E04A
:101328007B681B68D96A3B685B68A3F10D021346AA
:101338009B0013441F2202FA03F3DA437B681B68FD
:101348000A40DA627B681B68D96A3B681B689BB2F3
:1013580018463B685B68A3F10D0213469B001344D3
:1013680000FA03F27B681B680A43DA62214BFB60D0
:101378007B681B68204A934209D13B681B68122B83
:1013880005D1FB685B6843F48002FB685A607B68A0
:101398001B68194A934223D13B681B68102B03D062
:1013A8003B681B68112B1BD1FB685B6843F4000288
:1013B800FB685A603B681B68102B11D10F4B1B68E8
:1013C8000F4AA2FB03239A0C13469B0013445B00AD
:1013D800BB6002E0BB68013BBB60BB68002BF9D176
:1013E8007B68002283F83C20002318461437BD464A
:1013F80080BC70470023014000200140000000200D
:1014080083DE1B4380B487B000AF7860814B7B617B
:101418007B695B6823F440327B695A607B695A6850
:101428007B685B681A437B695A607B681B685A68EB
:101438007B681B6822F480725A607B681B68596855
:101448007B681B691A027B681B680A435A607B68C1
:101458001B685A687B681B6822F040725A607B6878
:101468001B6859687B689A687B681B680A435A60DE
:101478007B681B689A687B681B6822F400629A6024
:101488007B681B6899687B68DA687B681B680A4315
:101498009A607B689B6A604A934222D07B681B688B
:1014A8009A687B681B6822F070629A607B681B6888
:1014B80099687B689A6A7B681B680A439A607B68AC
:1014C8001B689A687B681B6822F040529A607B68A8
:1014D8001B6899687B68DA6A7B681B680A439A60AC
:1014E8000FE07B681B689A687B681B6822F0706253
:1014F8009A607B681B689A687B681B6822F0405278
:101508009A607B681B689A687B681B6822F00202F5
:101518009A607B681B6899687B689B695A007B683E
:101528001B680A439A607B681B6A002B2ED07B6875
:101538001B685A687B681B6842F400625A607B68C3
:101548001B685A687B681B6822F460425A607B6893
:101558005B6A013B4FF46042FA60FA6892FAA2F2C1
:10156800BA60BA683A613A69002A01D1202203E0D8
:101578003A69B2FA82F2D2B203FA02F17B681B68C6
:101588005A687B681B680A435A6007E07B681B68D7
:101598005A687B681B6822F400625A607B681B6883
:1015A800DA6A7B681B6822F47002DA627B681B685F
:1015B800D96A7B68DB69013B1A057B681B680A43AB
:1015C800DA627B681B689A687B681B6822F4007281
:1015D8009A607B681B6899687B681B6B5A027B68FA
:1015E8001B680A439A607B681B689A687B681B685B
:1015F80022F480629A607B681B6899687B685B69E3
:101608009A027B681B680A439A6000BF1C37BD4674
:1016180080BC7047002301400100000F80B584B0F2
:1016280000AF78607B689B6BFB60FB681B6C03F00A
:101638005003002B3CD1FB681B6C43F40072FB6821
:101648001A64FB681B689B6803F04053002B2BD17E
:10165800FB689B69002B27D1FB681B68DB6A03F4D6
:101668007003002B06D0FB681B689B6803F480633B
:10167800002B19D1FB681B685A68FB681B6822F0AD
:1016880020025A60FB681B6C23F48072FB681A64A2
:10169800FB681B6C03F48053002B05D1FB681B6CA3
:1016A80043F00102FB681A64F868FFF76BFD04E079
:1016B800FB689B6BDB6C7868984700BF1037BD46AA
:1016C80080BD80B584B000AF78607B689B6BFB60A1
:1016D800F868FFF760FD00BF1037BD4680BD80B5D4
:1016E80084B000AF78607B689B6BFB60FB6840222E
:1016F8001A64FB685B6C43F00402FB685A64F86880
:10170800FFF752FD00BF1037BD4680BD80B582B0DF
:1017180000AF78607B68002B01D1012314E07B685F
:101728001B79DBB2002B05D17B6800225A717868DF
:1017380003F090F97B6802221A717B6800221A6113
:101748007B6801221A71002318460837BD4680BD00
:1017580080B586B000AFF860B9607A603B6000235E
:101768007B61FB685B79012B01D102239BE0FB685D
:1017780001225A71FB6802221A71BB68002B2FD113
:10178800FB689B684A4ADA63FB689B68494A1A64A3
:10179800FB689B68484ADA64FB681B681A68FB6840
:1017A8001B6842F480521A603B6A082B13D03B6ACC
:1017B800082B45D83B6A002B03D03B6A042B05D085
:1017C8003EE0FB681B6808337B613CE0FB681B68F4
:1017D8000C337B6137E0FB681B6810337B6132E0B8
:1017E800FB68DB68354ADA63FB68DB68344A1A64ED
:1017F800FB68DB68334ADA64FB681B681A68FB68B5
:101808001B6842F080521A603B6A082B13D03B6A6F
:10181800082B17D83B6A002B03D03B6A042B05D052
:1018280010E0FB681B6814337B610CE0FB681B68E5
:1018380018337B6107E0FB681B681C337B6102E09F
:1018480000BF00E000BFBB68002B0FD1FB681B681E
:101858001A68FB681B6842F400521A60FB689868B3
:1018680079683B687A6901F023F90EE0FB681B6828
:101878001A68FB681B6842F000521A60FB68D86857
:1018880079683B687A6901F013F9FB681B68196885
:101898000122BB689A40FB681B680A431A60FB6810
:1018A80000225A71002318461837BD4680BD00BF74
:1018B800211A0008431A00085F1A0008C31A000812
:1018C800E51A0008011B000880B584B000AF7860F5
:1018D80039600023FB737B681B6819684FF48052DA
:1018E8003B6802FA03F3DA437B681B680A401A6014
:1018F8007B681B68196801223B6802FA03F3DA4324
:101908007B681B680A401A603B68002B07D17B681C
:101918009B68184601F02CF90346FB7306E07B68C8
:10192800DB68184601F024F90346FB73FB7B002BA8
:1019380003D07B6804221A7102E07B6801221A71C5
:10194800FB7B18461037BD4680BD80B483B000AF1E
:10195800786000BF0C37BD4680BC704780B483B048
:1019680000AF786000BF0C37BD4680BC704780B4BC
:1019780083B000AF786000BF0C37BD4680BC7047AD
:1019880080B487B000AFF860B9607A6000237B61EB
:1019980000233B61FB685B79012B01D1022336E010
:1019A800FB6801225A71FB6802221A71FB681B68E6
:1019B8001B687B6140F6FE727B6802FA03F3DB4327
:1019C8007A6913407B61BB681A68BB685B6813431C
:1019D8003B613A697B6802FA03F37A6913437B61D6
:1019E800FB681B687A691A60FB681B681968C02263
:1019F8007B6802FA03F3DA43FB681B680A401A6043
:101A0800FB6801221A71FB6800225A7100231846EC
:101A18001C37BD4680BC704780B584B000AF786085
:101A28007B689B6BFB60F868FFF78FFFFB68012200
:101A38001A7100BF1037BD4680BD80B584B000AFB5
:101A480078607B689B6BFB60F868FFF787FF00BFD7
:101A58001037BD4680BD80B584B000AF78607B6824
:101A68009B6BFB60FB681B6943F00402FB681A610F
:101A7800F868FFF77CFFFB6801221A7100BF103776
:101A8800BD4680BD80B483B000AF786000BF0C371E
:101A9800BD4680BC704780B483B000AF786000BF9B
:101AA8000C37BD4680BC704780B483B000AF786007
:101AB80000BF0C37BD4680BC704780B584B000AF0E
:101AC80078607B689B6BFB60F868FFF7DBFFFB685F
:101AD80001221A7100BF1037BD4680BD80B584B0A1
:101AE80000AF78607B689B6BFB60F868FFF7D3FFFB
:101AF80000BF1037BD4680BD80B584B000AF7860A8
:101B08007B689B6BFB60FB681B6943F00402FB6806
:101B18001A61F868FFF7C8FFFB6801221A7100BF55
:101B28001037BD4680BD80B582B000AF78607B6855
:101B3800002B01D101233FE07B6893F83930DBB2F9
:101B4800002B06D17B68002283F83820786802F0E1
:101B5800CDFB7B68242283F839207B681B68DA6810
:101B68007B681B6822F40052DA60786800F07AFB20
:101B78007B681B681A697B681B6822F490421A61AB
:101B88007B681B685A697B681B6822F02A025A61C5
:101B98007B681B68DA687B681B6842F40052DA606D
:101BA8007B680022DA637B68202283F839207B680F
:101BB800202283F83A20002318460837BD4680BD06
:101BC80080B588B002AFF860B9603B601346FB800F
:101BD80000237B61FB6893F83930DBB2202B40F09F
:101BE8008380BB68002B02D0FB88002B01D1012326
:101BF8007BE0FB6893F83830012B01D1022374E0B5
:101C0800FB68012283F83820FB680022DA63FB684E
:101C1800212283F83920FFF73FF97861FB68FA88B9
:101C28009A84FB68FA88DA8442E0FB68DB8C9BB212
:101C3800013B9AB2FB68DA84FB689B68B3F5805F66
:101C480022D13B6800937B6900228021F86800F06C
:101C5800A7F90346002B01D0032346E0BB683B618C
:101C68003B691B881A46FB681B68C2F308025A6066
:101C7800FB681B69002B03D1BB680233BB6017E00C
:101C8800BB680133BB6013E03B6800937B690022AB
:101C98008021F86800F084F90346002B01D0032363
:101CA80023E0BB685A1CBA601A78FB681B685A6044
:101CB800FB68DB8C9BB2002BB7D13B6800937B6938
:101CC80000224021F86800F06BF90346002B01D090
:101CD80003230AE0FB68202283F83920FB680022EE
:101CE80083F83820002300E0022318461837BD4641
:101CF80080BD80B485B000AFF860B9601346FB8042
:101D0800FB6893F83A30DBB2202B38D1BB68002B44
:101D180002D0FB88002B01D1012331E0FB6893F846
:101D28003830012B01D102232AE0FB68012283F815
:101D38003820FB68BA689A62FB68FA889A85FB685B
:101D4800FA88DA85FB680022DA63FB68222283F8C6
:101D58003A20FB68002283F83820FB681B685A6920
:101D6800FB681B6842F001025A61FB681B68DA686D
:101D7800FB681B6842F49072DA60002300E00223DB
:101D880018461437BD4680BC7047000080B588B03F
:101D980000AF78607B681B681B68FB617B681B6809
:101DA800DB68BB617B681B685B697B6100233B6107
:101DB8000023FB60FB6903F00F033B613B69002BC9
:101DC8000DD1FB6903F02003002B08D0BB6903F099
:101DD8002003002B03D0786800F0CAF9C9E03B69FA
:101DE800002B00F0A9807B6903F00103002B05D1CB
:101DF800BB6903F49073002B00F09E80FB6903F02D
:101E08000103002B0AD0BB6903F48073002B05D0B3
:101E18007B68DB6B43F001027B68DA63FB6903F0E4
:101E28000403002B0AD07B6903F00103002B05D0C3
:101E38007B68DB6B43F002027B68DA63FB6903F0C3
:101E48000203002B0AD07B6903F00103002B05D0A5
:101E58007B68DB6B43F004027B68DA63FB6903F0A1
:101E68000803002B0AD07B6903F00103002B05D07F
:101E78007B68DB6B43F008027B68DA637B68DB6BAB
:101E8800002B75D0FB6903F02003002B07D0BB693A
:101E980003F02003002B02D0786800F069F97B6812
:101EA8001B685B6903F04003C3F38013DBB2FB607C
:101EB8007B68DB6B03F00803002B02D1FB68002B67
:101EC80031D0786800F0B6F87B681B685B6903F06E
:101ED8004003002B23D07B681B685A697B681B680A
:101EE80022F040025A617B685B6B002B13D07B6841
:101EF8005B6B214A1A657B685B6B184600F0A8FE8D
:101F08000346002B16D07B685B6B1B6D7A68526B9F
:101F1800104698470EE0786800F039F80AE07868CB
:101F280000F035F806E0786800F031F87B680022A8
:101F3800DA631DE000BF1BE0FB6903F08003002BA0
:101F480008D0BB6903F08003002B03D0786800F049
:101F5800A2F80EE0FB6903F04003002B09D0BB692F
:101F680003F04003002B04D0786800F0E9F800E0A3
:101F780000BF2037BD4680BD7720000880B483B0FD
:101F880000AF786000BF0C37BD4680BC704780B496
:101F980083B000AF786000BF0C37BD4680BC704787
:101FA80080B584B000AFF860B9603B601346FB7140
:101FB8002CE0BB69B3F1FF3F28D0BB69002B07D0E9
:101FC800FEF76AFF02463B68D31ABA699A421DD2E5
:101FD800FB681B68DA68FB681B6822F4D072DA6059
:101FE800FB681B685A69FB681B6822F001025A618A
:101FF800FB68202283F83920FB68202283F83A20E6
:10200800FB68002283F8382003230FE0FB681B6875
:102018001A68BB681340BA689A420CBF01230023B0
:10202800DBB21A46FB799A42C3D000231846103710
:10203800BD4680BD80B483B000AF78607B681B6804
:10204800DA687B681B6822F49072DA607B681B6828
:102058005A697B681B6822F001025A617B6820225A
:1020680083F83A2000BF0C37BD4680BC704780B566
:1020780084B000AF78607B689B6BFB60FB680022D4
:10208800DA85FB680022DA84F868FFF780FF00BF72
:102098001037BD4680BD80B485B000AF78607B68DE
:1020A80093F83930DBB2212B44D17B689B68B3F5B8
:1020B800805F1AD17B681B6AFB60FB681B881A4625
:1020C8007B681B68C2F308025A607B681B69002B97
:1020D80005D17B681B6A9A1C7B681A620EE07B68D4
:1020E8001B6A5A1C7B681A6208E07B681B6A591CC9
:1020F8007A6811621A787B681B685A607B68DB8C87
:102108009BB2013B9BB27A681946D184002B0FD150
:102118007B681B68DA687B681B6822F08002DA60DB
:102128007B681B68DA687B681B6842F04002DA60EB
:10213800002300E0022318461437BD4680BC7047D0
:1021480080B582B000AF78607B681B68DA687B680E
:102158001B6822F04002DA607B68202283F839206D
:102168007868FFF70BFF002318460837BD4680BD87
:1021780080B584B000AF78607B6893F83A30DBB202
:10218800222B69D17B689B68B3F5805F23D17B687C
:102198009B6AFB607B681B69002B0ED17B681B6800
:1021A8005B689BB2C3F308039AB2FB681A807B682A
:1021B8009B6A9A1C7B689A6229E07B681B685B684B
:1021C8009BB2DBB29AB2FB681A807B689B6A5A1C86
:1021D8007B689A621BE07B681B69002B0AD17B68CD
:1021E8001B6858687B689B6A591C7A689162C2B2FE
:1021F8001A700CE07B681B685B68DAB27B689B6AC4
:10220800581C7968886202F07F02D2B21A707B6823
:10221800DB8D9BB2013B9BB27A681946D185002BB6
:1022280018D17B681B68DA687B681B6822F4907297
:10223800DA607B681B685A697B681B6822F00102B8
:102248005A617B68202283F83A20786802F0A0F867
:10225800002302E0002300E0022318461037BD46A1
:1022680080BD0000B0B584B000AF78600023FB608B
:102278007B681B681B69FB60FB6823F44053FB60A9
:102288007B68DB68FA681343FB607B681B68FA6845
:102298001A617B681B68DB68FB60FB6823F41643E4
:1022A80023F00C03FB607B689A687B681B691A4300
:1022B8007B685B691A437B68DB691343FA681343DD
:1022C800FB607B681B68FA68DA607B681B685B697F
:1022D800FB60FB6823F44073FB607B689B69FA68CA
:1022E8001343FB607B681B68FA685A617B68DB698B
:1022F800B3F5004F40F0E4807B681B68AB4A93421B
:1023080004D07B681B68AA4A93426CD101F09AFBFF
:10231800024613469B0013449A001A447B685B6884
:102328005B00B2FBF3F3A34AA2FB03235B091C0186
:1023380001F088FB024613469B0013449A001A4496
:102348007B685B685B00B2FBF3F501F07BFB024640
:1023580013469B0013449A001A447B685B685B0031
:10236800B2FBF3F3934AA2FB03235B09642202FB4B
:1023780003F3EB1ADB0032338E4AA2FB03235B091B
:102388005B0003F4F8731C4401F05CFB024613463F
:102398009B0013449A001A447B685B685B00B2FB9D
:1023A800F3F501F04FFB024613469B0013449A00D5
:1023B8001A447B685B685B00B2FBF3F37D4AA2FBBF
:1023C80003235B09642202FB03F3EB1ADB003233BD
:1023D800784AA2FB03235B0903F007027B681B68AA
:1023E80022449A6054E101F003FB024613469B0025
:1023F80013449A001A447B685B685B00B2FBF3F3F2
:102408006C4AA2FB03235B091C0101F0F1FA0246A6
:1024180013469B0013449A001A447B685B685B0070
:10242800B2FBF3F501F0E4FA024613469B001344AD
:102438009A001A447B685B685B00B2FBF3F35D4A61
:10244800A2FB03235B09642202FB03F3EB1ADB0004
:102458003233584AA2FB03235B095B0003F4F87389
:102468001C4401F0C5FA024613469B0013449A0027
:102478001A447B685B685B00B2FBF3F501F0B8FABD
:10248800024613469B0013449A001A447B685B6813
:102498005B00B2FBF3F3474AA2FB03235B09642208
:1024A80002FB03F3EB1ADB003233424AA2FB03239D
:1024B8005B0903F007027B681B6822449A60E7E027
:1024C8007B681B68394A934204D07B681B68384A8A
:1024D800934271D101F0B6FA024613469B001344A9
:1024E8009A001A447B685B689B00B2FBF3F3314A9D
:1024F800A2FB03235B091C0101F0A4FA0246134660
:102508009B0013449A001A447B685B689B00B2FBEB
:10251800F3F501F097FA024613469B0013449A001C
:102528001A447B685B689B00B2FBF3F3214AA2FB69
:1025380003235B09642202FB03F3EB1A1B0132330A
:102548001C4AA2FB03235B0903F0F0031C4401F0BF
:1025580079FA024613469B0013449A001A447B6892
:102568005B689B00B2FBF3F501F06CFA0246134678
:102578009B0013449A001A447B685B689B00B2FB7B
:10258800F3F30C4AA2FB03235B09642202FB03F367
:10259800EB1A1B013233074AA2FB03235B0903F042
:1025A8000F027B681B6822449A6071E000100140AA
:1025B800001401401F85EB5101F01AFA0246134638
:1025C8009B0013449A001A447B685B689B00B2FB2B
:1025D800F3F3314AA2FB03235B091C0101F008FA5B
:1025E800024613469B0013449A001A447B685B68B2
:1025F8009B00B2FBF3F501F0FBF9024613469B0082
:1026080013449A001A447B685B689B00B2FBF3F39F
:10261800214AA2FB03235B09642202FB03F3EB1AA2
:102628001B0132331C4AA2FB03235B0903F0F003AE
:102638001C4401F0DDF9024613469B0013449A003E
:102648001A447B685B689B00B2FBF3F501F0D0F994
:10265800024613469B0013449A001A447B685B6841
:102668009B00B2FBF3F30C4AA2FB03235B09642231
:1026780002FB03F3EB1A1B013233074AA2FB0323C5
:102688005B0903F00F027B681B6822449A60FFE72E
:1026980000BF1037BD46B0BD1F85EB5180B582B075
:1026A80000AF78607B68002B01D101231DE07B68B7
:1026B80093F83930DBB2002B06D17B68002283F80F
:1026C8003820786801F094FF7B68022283F839206B
:1026D8007B681A687B6804331946104600F04EF888
:1026E8007B68012283F83920002318460837BD4645
:1026F80080BD80B483B000AF78607B68022283F825
:1027080039207B681B681A687B681B6842F00102E5
:102718001A607B68012283F83920002318460C3799
:10272800BD4680BC704780B483B000AF78607B68DA
:10273800022283F839207B681B681A6A41F2111358
:102748001340002B0FD17B681B681A6A40F2444380
:102758001340002B07D17B681B681A687B681B68CD
:1027680022F001021A607B68012283F839200023D5
:1027780018460C37BD4680BC7047000080B485B051
:1027880000AF786039600023FB607B681B68FB60E2
:102798007B68434A934213D07B68B3F1804F0FD0D4
:1027A8007B68404A93420BD07B683F4A934207D0EC
:1027B8007B683E4A934203D07B683D4A934201D1ED
:1027C800012300E00023002B08D0FB6823F07003EE
:1027D800FB603B685B68FA681343FB607B68304AC0
:1027E80093422BD07B68B3F1804F27D07B682D4A6A
:1027F800934223D07B682C4A93421FD07B682B4A94
:1028080093421BD07B682A4A934217D07B68294A97
:10281800934213D07B68284A93420FD07B68274A9B
:1028280093420BD07B68264A934207D07B68254A9F
:10283800934203D07B68244A934201D1012300E0EC
:102848000023002B08D0FB6823F44073FB603B682F
:10285800DB68FA681343FB607B68FA681A603B68B8
:102868009A687B68DA623B681A687B689A627B6858
:102878000B4A934203D07B680D4A934201D101234E
:1028880000E00023002B03D03B681A697B681A63B9
:102898007B6801225A6100BF1437BD4680BC70476F
:1028A800000001400004004000080040000C004007
:1028B800000401400040014000440140004801403C
:1028C80000180040001C00400020004080B483B085
:1028D80000AF786039607B6893F83830012B01D1FC
:1028E800022332E07B68012283F838207B680222C9
:1028F80083F839207B681B685A687B681B6822F05C
:1029080070025A607B681B6859683B681A687B6864
:102918001B680A435A607B681B689A687B681B6857
:1029280022F080029A607B681B6899683B685A6845
:102938007B681B680A439A607B68012283F8392008
:102948007B68002283F83820002318460C37BD46E0
:1029580080BC704780B586B000AF786000237B618B
:10296800FEF79AFA38617B68002B01D1012399E0C0
:102978007B68002283F834207B68022283F83520A4
:102988007B681B681A687B681B6822F001021A6062
:102998000FE0FEF781FA02463B69D31A052B08D9E6
:1029A8007B6820225A657B68032283F8352003233D
:1029B80078E07B681B681B6803F00103002BE8D1F3
:1029C8007B681B681B687B617A69384B13407B61A5
:1029D8007B685A687B689B681A437B68DB681A4384
:1029E8007B681B691A437B685B691A437B689B6930
:1029F8001A437B68DB691A437B681B6A13437A694D
:102A080013437B617B685B6A042B07D17B68DA6AB6
:102A18007B681B6B13437A6913437B617B681B6874
:102A28007A691A607B681B685B697B617B6923F044
:102A380007037B617B685B6A7A6913437B617B6808
:102A48005B6A042B17D17B689B6A7A6913437B61A5
:102A58007B68DB6A002B0ED0786800F00BFB03461E
:102A6800002B08D07B6840225A657B68012283F8D6
:102A78003520012316E07B681B687A695A617868FB
:102A880000F0C4FA0346FB607B68DB6D3F229A4086
:102A9800FB689A607B6800225A657B68012283F88C
:102AA8003520002318461837BD4680BD3F8010F0FA
:102AB80080B586B000AFF860B9607A603B600023EB
:102AC800FB75FB689B6D3B61FB6893F83430012B09
:102AD80001D1022348E0FB68012283F83420FB6817
:102AE80093F83530DBB2012B37D1FB68022283F82B
:102AF8003520FB6800225A653B687A68B968F8682F
:102B080000F056FAFB68DB6D3F229A403B699A60F9
:102B1800FB681B681A68FB681B6842F016021A609B
:102B2800FB681B685A69FB681B6842F080025A619F
:102B3800FB681B6C002B07D0FB681B681A68FB68D6
:102B48001B6842F008021A60FB681B681A68FB6879
:102B58001B6842F001021A6005E0FB68002283F856
:102B680034200223FB75FB7D18461837BD4680BD0F
:102B780080B584B000AF78607B689B6DFB60FEF722
:102B88008BF9B8607B6893F83530DBB2022B08D03C
:102B98007B6880225A657B68002283F834200123F1
:102BA80052E07B681B681A687B681B6822F0160273
:102BB8001A607B681B685A697B681B6822F0800270
:102BC8005A617B681B6C002B03D17B689B6C002BC4
:102BD80007D07B681B681A687B681B6822F00802AC
:102BE8001A607B681B681A687B681B6822F0010200
:102BF8001A6013E0FEF750F90246BB68D31A052B9A
:102C08000CD97B6820225A657B68002283F834201F
:102C18007B68032283F83520032315E07B681B6853
:102C28001B6803F00103002BE4D17B68DB6D3F22B6
:102C38009A40FB689A607B68002283F834207B689E
:102C4800012283F83520002318461037BD4680BD81
:102C580080B483B000AF78607B6893F83530DBB21E
:102C6800022B04D07B6880225A6501230CE07B6824
:102C7800052283F835207B681B681A687B681B6807
:102C880022F001021A60002318460C37BD4680BCAA
:102C98007047000080B586B000AF78600023BB6045
:102CA8008E4B1B688E4AA2FB03239B0A7B617B68C1
:102CB8009B6D3B613B691B68FB607B68DB6D082291
:102CC8009A40FB681340002B1AD07B681B681B686E
:102CD80003F00403002B13D07B681B681A687B6819
:102CE8001B6822F004021A607B68DB6D08229A4098
:102CF8003B699A607B685B6D43F001027B685A65AB
:102D08007B68DB6D774A9A40FB681340002B12D032
:102D18007B681B685B6903F08003002B0BD07B6822
:102D2800DB6D704A9A403B699A607B685B6D43F043
:102D380002027B685A657B68DB6D6B4A9A40FB68C8
:102D48001340002B12D07B681B681B6803F002033A
:102D5800002B0BD07B68DB6D634A9A403B699A6015
:102D68007B685B6D43F004027B685A657B68DB6DAA
:102D780010229A40FB681340002B43D07B681B68E5
:102D88001B6803F00803002B3CD07B68DB6D102226
:102D98009A403B699A607B681B681B6803F4802330
:102DA800002B18D07B681B681B6803F40023002BDA
:102DB80008D17B681B6C002B24D07B681B6C78685F
:102DC80098471FE07B689B6C002B1BD07B689B6C33
:102DD8007868984716E07B681B681B6803F4807363
:102DE800002B07D17B681B681A687B681B6822F078
:102DF80008021A607B681B6C002B03D07B681B6C75
:102E0800786898477B68DB6D20229A40FB681340FE
:102E1800002B00F093807B681B681B6803F010038D
:102E2800002B00F08B807B68DB6D20229A403B6989
:102E38009A607B6893F83530DBB2052B37D17B6815
:102E48001B681A687B681B6822F016021A607B6888
:102E58001B685A697B681B6822F080025A617B688C
:102E68001B6C002B03D17B689B6C002B07D07B6805
:102E78001B681A687B681B6822F008021A607B6866
:102E8800DB6D3F229A403B699A607B68002283F899
:102E980034207B68012283F835207B681B6D002B6A
:102EA80000F082807B681B6D786898477CE07B68BF
:102EB8001B681B6803F48023002B20D07B681B68E9
:102EC8001B6803F40023002B10D17B685B6C002B7C
:102ED80034D07B685B6C786898472FE0000000204E
:102EE800B5814E1B01008000040080007B68DB6B0D
:102EF800002B23D07B68DB6B786898471EE07B68E3
:102F08001B681B6803F48073002B0FD17B681B6858
:102F18001A687B681B6822F010021A607B6800221E
:102F280083F834207B68012283F835207B68DB6BCB
:102F3800002B03D07B68DB6B786898477B685B6DF8
:102F4800002B32D07B685B6D03F00103002B22D08D
:102F58007B68052283F835207B681B681A687B68C4
:102F68001B6822F001021A60BB680133BB607A69F2
:102F78009A4207D37B681B681B6803F00103002B88
:102F8800F2D100E000BF7B68002283F834207B6820
:102F9800012283F835207B68DB6C002B05D07B6829
:102FA800DB6C7868984700E000BF1837BD4680BDE5
:102FB80080B485B000AFF860B9607A603B60FB68A8
:102FC8001B681A68FB681B6822F480221A60FB6879
:102FD8001B683A685A60FB689B68402B08D1FB68FD
:102FE8001B687A689A60FB681B68BA68DA6007E051
:102FF800FB681B68BA689A60FB681B687A68DA60C5
:1030080000BF1437BD4680BC7047000080B485B04F
:1030180000AF78607B681B68DBB2103B134AA2FBE9
:1030280003231B09FB60124AFB6813441B781A46EA
:103038007B68DA65FB68032B09D97B681B6823F476
:103048007F7323F003031A1D7B689A6507E07B688A
:103058001B6823F47F7323F003037A6893657B6806
:103068009B6D18461437BD4680BC7047ABAAAAAA08
:103078001061000880B485B000AF78600023FB734E
:103088007B689B6ABB607B689B69002B23D1BB680C
:10309800032B5FD0BB68032B5ED8BB68022B09D01B
:1030A800BB68022B58D8BB68002B03D0BB68012B28
:1030B80009D051E07B68DB6A03F08073002B4DD0A8
:1030C8000123FB734AE07B68DB6AB3F1C07F47D119
:1030D8000123FB7344E07B689B69B3F5005F26D14D
:1030E800BB68032B1BD0BB68032B3BD8BB68022BE8
:1030F80009D0BB68022B35D8BB68002B03D0BB684E
:10310800012B03D02EE00123FB7332E07B68DB6ADE
:1031180003F08073002B27D00123FB7324E07B6826
:10312800DB6AB3F1C07F21D10123FB731EE0BB68CA
:10313800022B03D9BB68032B03D01AE00123FB73CE
:1031480017E07B68DB6A03F08073002B10D0012343
:10315800FB730DE000BF0CE000BF0AE000BF08E011
:1031680000BF06E000BF04E000BF02E000BF00E0CF
:1031780000BFFB7B18461437BD4680BC7047000073
:1031880080B594B000AF78600023FB647B681B684F
:1031980003F00103002B75D0994B9B6803F00C03D7
:1031A800042B0CD0964B9B6803F00C03082B12D110
:1031B800934B5B6803F48003B3F5800F0BD1904BFE
:1031C8001B6803F40033002B5BD07B685B68002B23
:1031D80057D1012346E27B685B68B3F5803F06D18F
:1031E800874B1B68864A43F4803313601DE07B6875
:1031F8005B68B3F5A02F0CD1814B1B68804A43F460
:10320800802313607E4B1B687D4A43F48033136030
:103218000BE07B4B1B687A4A23F480331360784BAE
:103228001B68774A23F4802313607B685B68002B54
:1032380013D0FDF731FEF86408E0FDF72DFE0246D5
:10324800FB6CD31A642B01D903230BE26C4B1B686C
:1032580003F40033002BF0D014E0FDF71DFEF864F2
:1032680008E0FDF719FE0246FB6CD31A642B01D95E
:103278000323F7E1624B1B6803F40033002BF0D102
:1032880000E000BF7B681B6803F00203002B00F01E
:1032980086805B4B9B6803F00C03002B0BD0584BCC
:1032A8009B6803F00C03082B2DD1554B5B6803F486
:1032B8008003002B27D1524B1B6803F00203002B1D
:1032C80005D07B68DB68012B01D00123CAE14C4B98
:1032D8001B6823F0F8027B681B69F8217964796C14
:1032E80091FAA1F13964396CB964B96C002901D13A
:1032F800202103E0B96CB1FA81F1C9B28B40404991
:1033080013430B604BE07B68DB68002B31D03D4BEF
:1033180001221A60FDF7C0FDF86408E0FDF7BCFD66
:103328000246FB6CD31A022B01D903239AE1344BD2
:103338001B6803F00203002BF0D0314B1B6823F00D
:10334800F8027B681B69F821B963B96B91FAA1F19E
:103358007963796BF963F96B002901D1202103E0C6
:10336800F96BB1FA81F1C9B28B40254913430B605F
:1033780015E0244B00221A60FDF78EFDF86408E082
:10338800FDF78AFD0246FB6CD31A022B01D90323F1
:1033980068E11B4B1B6803F00203002BF0D17B682C
:1033A8001B6803F00803002B36D07B685B69002B91
:1033B80016D0154B01221A60FDF76EFDF86408E07F
:1033C800FDF76AFD0246FB6CD31A022B01D90323D1
:1033D80048E10B4B5B6F03F00203002BF0D01BE0BE
:1033E800094B00221A60FDF757FDF8640EE0FDF75F
:1033F80053FD0246FB6CD31A022B07D9032331E194
:103408000038024000004742800E4742974B5B6FEE
:1034180003F00203002BEAD17B681B6803F0040366
:10342800002B7DD00023FB60904B1B6C8F4A43F030
:10343800805313648D4B1B6C03F08053FB60FB6857
:103448008B4B1B688A4A43F480731360FDF724FD95
:10345800F86408E0FDF720FD0246FB6CD31A022B46
:1034680001D90323FEE0824B1B6803F48073002B11
:10347800F0D07B689B68012B06D17C4B1B6F7B4A85
:1034880043F0010313671CE07B689B68052B0CD194
:10349800764B1B6F754A43F004031367734B1B6F1E
:1034A800724A43F0010313670BE0704B1B6F6F4ABE
:1034B80023F0010313676D4B1B6F6C4A23F0040361
:1034C80013677B689B68002B15D0FDF7E5FCF86453
:1034D8000AE0FDF7E1FC0246FB6CD31A41F28832A0
:1034E800934201D90323BDE0604B1B6F03F0020335
:1034F800002BEED014E0FDF7CFFCF8640AE0FDF7EE
:10350800CBFC0246FB6CD31A41F28832934201D9B4
:103518000323A7E0554B1B6F03F00203002BEED1EA
:103528007B689B69002B00F09C80504B9B6803F0E4
:103538000C03082B00F093807B689B69022B77D1E2
:103548004C4B00221A60FDF7A7FCF86408E0FDF771
:10355800A3FC0246FB6CD31A022B01D9032381E09A
:10356800424B1B6803F00073002BF0D17B68DA69CB
:103578007B681B6A1A437B685B6A47F6C07179618E
:10358800796991FAA1F139613969B961B969002993
:1035980001D1202103E0B969B1FA81F1C9B28B40A8
:1035A8001A437B689B6A5B08013B4FF440313962E0
:1035B800396A91FAA1F1F961F9697962796A0029A0
:1035C80001D1202103E0796AB1FA81F1C9B28B40B7
:1035D8001A437B68DB6A4FF07061F962F96A91FA05
:1035E800A1F1B962B96A3963396B002901D1202187
:1035F80003E0396BB1FA81F1C9B28B401B4913431F
:103608004B601C4B01221A60FDF746FCF86408E089
:10361800FDF742FC0246FB6CD31A022B01D90323A7
:1036280020E0124B1B6803F00073002BF0D018E069
:10363800104B00221A60FDF72FFCF86408E0FDF734
:103648002BFC0246FB6CD31A022B01D9032309E099
:10365800064B1B6803F00073002BF0D101E0012337
:1036680000E0002318465037BD4680BD00380240B0
:10367800007000406000474280B586B000AF7860B7
:10368800396000237B61854B1B6803F00F033A68A0
:103698009A420CD9814B3A68D2B21A707F4B1B6898
:1036A80003F00F033A689A4201D00123F1E07B68E6
:1036B8001B6803F00203002B08D0794B9B6823F0AA
:1036C800F0027B689B68764913438B607B681B68B4
:1036D80003F00103002B00F086807B685B68012BF8
:1036E80007D16F4B1B6803F40033002B19D101235A
:1036F800CFE07B685B68022B03D07B685B68032B99
:1037080007D1674B1B6803F00073002B09D1012315
:10371800BFE0634B1B6803F00203002B01D10123B8
:10372800B7E05F4B9B6823F003027B685B685C49EA
:1037380013438B60FDF7B0FB78617B685B68012BF6
:1037480012D10AE0FDF7A8FB02467B69D31A41F2C1
:103758008832934201D903239BE0514B9B6803F0C5
:103768000C03042BEED13EE07B685B68022B12D180
:103778000AE0FDF791FB02467B69D31A41F28832D1
:10378800934201D9032384E0454B9B6803F00C0363
:10379800082BEED127E07B685B68032B1DD10AE07C
:1037A800FDF77AFB02467B69D31A41F288329342CD
:1037B80001D903236DE03A4B9B6803F00C030C2BF3
:1037C800EED110E0FDF768FB02467B69D31A41F29F
:1037D8008832934201D903235BE0314B9B6803F0A5
:1037E8000C03002BEED12D4B1B6803F00F033A6836
:1037F8009A420CD2294B3A68D2B21A70274B1B68EE
:1038080003F00F033A689A4201D0012341E07B6834
:103818001B6803F00403002B08D0214B9B6823F49A
:10382800E0527B68DB681E4913438B607B681B682A
:1038380003F00803002B09D0194B9B6823F460425E
:103848007B681B69DB00164913438B6000F02EF878
:103858000146134B9B6803F0F003F022FA60FA6804
:1038680092FAA2F2BA60BA683A613A69002A01D1BA
:10387800202203E03A69B2FA82F2D2B2D340094A6E
:10388800D35C21FA03F3084A13600F20FDF7DAFA34
:10389800002318461837BD4680BD00BF003C0240D3
:1038A80000380240F86000080000002080B48FB0A3
:1038B80000AF0023FB6200237B630023BB6200236D
:1038C8003B63434B9B6803F00C03082B0CD0082B7D
:1038D80074D8002B02D0042B03D06FE03D4B3B6320
:1038E8006FE03D4B3B636CE0394B5B6803F03F0393
:1038F800FB62374B5B6803F48003002B1FD0364A0A
:10390800FB6AB2FBF3F2324B596847F6C0730B40BF
:1039180047F6C0713962396A91FAA1F1F961F9691A
:103928007962796A002901D1202103E0796AB1FA24
:1039380081F1C9B2CB4002FB03F37B631EE0254A49
:10394800FB6AB2FBF3F2224B596847F6C0730B408F
:1039580047F6C0717961796991FAA1F139613969DC
:10396800B961B969002901D1202103E0B969B1FA27
:1039780081F1C9B2CB4002FB03F37B63144B5B6854
:1039880003F440334FF44032BA60BA6892FAA2F2B4
:103998007A607A68FA60FA68002A01D1202203E086
:1039A800FA68B2FA82F2D2B2D34001335B00BB624A
:1039B8007A6BBB6AB2FBF3F33B6302E0054B3B63F4
:1039C80000BF3B6B18463C37BD4680BC704700BF04
:1039D800003802400024F40000127A0080B400AFDE
:1039E800024B1B681846BD4680BC7047000000208B
:1039F80080B584B000AFFFF7F1FF01460F4B9B681D
:103A080003F4E0534FF4E052BA60BA6892FAA2F2B3
:103A18007A607A68FA60FA68002A01D1202203E005
:103A2800FA68B2FA82F2D2B2D340054AD35C21FADC
:103A380003F318461037BD4680BD00BF003802406A
:103A48000861000880B584B000AFFFF7C7FF0146E2
:103A58000F4B9B6803F460434FF46042BA60BA6846
:103A680092FAA2F27A607A68FA60FA68002A01D1BA
:103A7800202203E0FA68B2FA82F2D2B2D340054AB1
:103A8800D35C21FA03F318461037BD4680BD00BF4A
:103A9800003802400861000880B489B000AF78603F
:103AA800396000237B6100233B610023BB61002355
:103AB800FB616BE10122FB6902FA03F37B613B685E
:103AC8001B687A6913403B613A697B699A4240F006
:103AD8005A813B685B68022B03D03B685B68122BFA
:103AE80023D1FB69DA087B68083253F82230BB61BE
:103AF800FB6903F007039B000F2202FA03F3DB4381
:103B0800BA691340BB613B681A69FB6903F0070394
:103B18009B0002FA03F3BA691343BB61FB69DA0835
:103B28007B680832B96943F822107B681B68BB615F
:103B3800FB695B00032202FA03F3DB43BA69134013
:103B4800BB613B685B6803F00302FB695B0002FA38
:103B580003F3BA691343BB617B68BA691A603B68AF
:103B68005B68012B0BD03B685B68022B07D03B6876
:103B78005B68112B03D03B685B68122B30D17B68E4
:103B88009B68BB61FB695B00032202FA03F3DB431A
:103B9800BA691340BB613B68DA68FB695B0002FAEB
:103BA80003F3BA691343BB617B68BA699A607B689F
:103BB8005B68BB610122FB6902FA03F3DB43BA6964
:103BC8001340BB613B685B681B0903F00102FB699A
:103BD80002FA03F3BA691343BB617B68BA695A6096
:103BE8007B68DB68BB61FB695B00032202FA03F3B5
:103BF800DB43BA691340BB613B689A68FB695B00A9
:103C080002FA03F3BA691343BB617B68BA69DA60E5
:103C18003B685B6803F08053002B00F0B4800023FE
:103C2800FB605F4B5B6C5E4A43F4804353645C4BC0
:103C38005B6C03F48043FB60FB685A4AFB699B0892
:103C4800023352F82330BB61FB6903F003039B0086
:103C58000F2202FA03F3DB43BA691340BB617B68A6
:103C6800514A93422BD07B68504A934225D07B68B7
:103C78004F4A93421FD07B684E4A934219D07B68C3
:103C88004D4A934213D07B684C4A93420DD07B68CF
:103C98004B4A934207D07B684A4A934201D1072393
:103CA8000EE008230CE006230AE0052308E00423BD
:103CB80006E0032304E0022302E0012300E00023DE
:103CC800FA6902F0030292009340BA691343BB6198
:103CD8003449FB699B080233BA6941F823203A4BFF
:103CE8001B68BB613B69DB43BA691340BB613B6836
:103CF8005B6803F48033002B03D0BA693B69134334
:103D0800BB61314ABB6913602F4B5B68BB613B6980
:103D1800DB43BA691340BB613B685B6803F400335B
:103D2800002B03D0BA693B691343BB61264ABB69C0
:103D38005360254B9B68BB613B69DB43BA69134001
:103D4800BB613B685B6803F48013002B03D0BA693E
:103D58003B691343BB611C4ABB6993601A4BDB6820
:103D6800BB613B69DB43BA691340BB613B685B6875
:103D780003F40013002B03D0BA693B691343BB61FA
:103D8800114ABB69D360FB690133FB61FB690F2BE7
:103D98007FF690AE00BF00BF2437BD4680BC704799
:103DA8000038024000380140000002400004024090
:103DB80000080240000C02400010024000140240BB
:103DC80000180240001C0240003C014080B485B04D
:103DD80000AF78600B467B807B681A697B8813404C
:103DE800002B02D00123FB7301E00023FB73FB7B54
:103DF80018461437BD4680BC704780B483B000AF06
:103E080078600B467B8013467B707B78002B03D051
:103E18007A887B689A6103E07B881A047B689A61D8
:103E280000BF0C37BD4680BC7047000080B485B029
:103E380000AF78607B6803F00703FB600C4BDB681E
:103E4800BB60BA684FF6FF031340BB60FB681A02F9
:103E5800BB68134343F0BF6343F40033BB60044AB9
:103E6800BB68D36000BF1437BD4680BC704700BF35
:103E780000ED00E080B400AF044BDB681B0A03F0E0
:103E880007031846BD4680BC704700BF00ED00E040
:103E980080B483B000AF0346FB71FB7903F01F02C7
:103EA800064997F907305B09012000FA02F241F848
:103EB800232000BF0C37BD4680BC704700E100E0FE
:103EC80080B483B000AF0346FB71FB7903F01F0297
:103ED800074997F907305B09012000FA02F22033FD
:103EE80041F8232000BF0C37BD4680BC704700BF97
:103EF80000E100E080B483B000AF03463960FB7195
:103F080097F90730002B0BDA3B68DAB20C49FB79DA
:103F180003F00F03043B1201D2B20B441A7609E0F6
:103F28003B68DAB2074997F907301201D2B20B445D
:103F380083F8002300BF0C37BD4680BC704700BF24
:103F480000ED00E000E100E080B489B000AFF86067
:103F5800B9607A60FB6803F007037B617B69033B08
:103F6800042B04D87B69C3F10703FB6101E0042338
:103F7800FB617B690433062B03D97B69033BBB6177
:103F880001E00023BB614FF0FF32FB6902FA03F343
:103F9800DA43BB681A40BB699A404FF0FF31BB69EE
:103FA80001FA03F3D9437B680B40134318462437BF
:103FB800BD4680BC7047000080B582B000AF786015
:103FC8007B68013BB3F1807F01D301230FE00A4AEC
:103FD8007B68013B53600F214FF0FF30FFF78AFFEA
:103FE800054B00229A60044B07221A6000231846EA
:103FF8000837BD4680BD00BF10E000E080B582B044
:1040080000AF78607868FFF711FF00BF0837BD463A
:1040180080BD80B586B000AF0346B9607A60FB7397
:1040280000237B61FFF726FF78617A68B9687869B1
:10403800FFF78AFF024697F90F3011461846FFF737
:1040480059FF00BF1837BD4680BD80B582B000AFAC
:104058000346FB7197F907301846FFF719FF00BFB1
:104068000837BD4680BD80B582B000AF0346FB71FE
:1040780097F907301846FFF723FF00BF0837BD46FA
:1040880080BD80B582B000AF78607868FFF794FF94
:10409800034618460837BD4680BD000080B483B08B
:1040A80000AF78607B68042B06D1094B1B68084A6F
:1040B80043F00403136005E0054B1B68044A23F032
:1040C8000403136000BF0C37BD4680BC704700BFB7
:1040D80010E000E080B598B000AFF860B9607A6091
:1040E8003B60002387F85F3000237B61324B1B6CF9
:1040F800314A43F0805313642F4B1B6C03F08053F9
:104108007B617B6900233B612C4B1B682B4A43F482
:1041180080431360294B1B6803F480433B613B6970
:104128000123FB624FF480333B6302237B644FF42B
:104138008003BB64BB68FB64FB683B657B687B658D
:104148003B68BB6507F12C031846FFF719F80346CF
:1041580087F85F3097F85F30002B01D000BFFDE78C
:104168000F23BB610223FB6100233B624FF4A05382
:104178007B624FF48053BB6207F118030521184690
:10418800FFF77AFA034687F85F3097F85F30002B1D
:1041980001D000BFFDE7FCF789FE034641F20102AA
:1041A800934205D1064B1B68054A43F4807313609C
:1041B80000BF6037BD4680BD003802400070004037
:1041C800003C024080B582B000AF0346FB7104207A
:1041D800FFF764FFFB79034A136000BF0837BD4649
:1041E80080BD00BF3C01002080B489B000AF78607A
:1041F8000023BB61194B5B687B61194B1A687B68AC
:1042080002FB03F33B61154B9B68FB61134B9B68F7
:10421800FB60FA68FB699A42F8D0FA68FB699A422F
:1042280006D2FA69FB68D31ABA691344BB6107E07E
:104238007A69FB68D21AFB691344BA691344BB61F3
:10424800FB68FB61BA693B699A4200D2DEE700BFAE
:1042580000BF2437BD4680BC704700BF10E000E0B7
:104268003C01002080B584B000AF0346FB800023EA
:10427800FB6006E04FF47A70FFF7B6FFFB68013386
:10428800FB60FB88FA689A42F4D300BF00BF10377E
:10429800BD4680BD80B582B000AF7860104B114A32
:1042A8001A600F4A7B6853600D4B00229A600C4BD2
:1042B8000022DA600A4B00221A61094B00229A6137
:1042C800074B0C225A610648FDF72DFC01220649CE
:1042D8000348FDF70EFD00BF0837BD4680BD00BF8F
:1042E80010020020001001400C02002080B58AB0A6
:1042F80000AF78607B681B68224A93423DD1002357
:104308003B61214B1B6B204A43F0010313631E4B97
:104318001B6B03F001033B613B690023FB601A4BF5
:104328005B6C194A43F010035364174B5B6C03F042
:104338001003FB60FB684FF400737B610223BB61D1
:104348000123FB6102233B6207237B6207F114030D
:1043580019460E48FFF7A0FB4FF480637B6107F115
:10436800140319460948FFF797FB2520FFF76DFE50
:10437800032203212520FFF74CFE00BF2837BD4646
:1043880080BD00BF0010014000380240000002401C
:1043980080B483B000AF78607B681B680B4A934297
:1043A8000FD10B4B1B780D2B0BD0094B1B780A2B0D
:1043B80007D0074B1A78074B1A70074B48F20102CF
:1043C8001A8000BF0C37BD4680BC70470010014002
:1043D8000C020020400100200802002080B500AF38
:1043E8000448FDF7D3FC012203490248FDF781FC8C
:1043F80000BF80BD100200200C02002080B586B0EE
:1044080000AF00233B60154B1B6B144A43F020039D
:104418001363124B1B6B03F020033B603B684FF4A4
:10442800C0637B600123BB600123FB6003233B6106
:104438003B1D19460A48FFF72FFB01224FF4007174
:104448000748FFF7DAFC01224FF480610448FFF7C0
:10445800D4FC00BF1837BD4680BD00BF00380240FD
:104468000014024080B588B000AF0023BB601D4B2C
:104478001B6B1C4A43F0010313631A4B1B6B03F0BD
:104488000103BB60BB6800237B60164B1B6B154A9E
:1044980043F010031363134B1B6B03F010037B6093
:1044A8007B680123FB6000233B6102237B610323BC
:1044B800BB6107F10C0319460B48FFF7EDFA10230F
:1044C800FB6000233B6102237B610323BB6107F18F
:1044D8000C0319460548FFF7DFFA00BF2037BD4631
:1044E80080BD00BF003802400000024000100240BA
:1044F80080B582B000AF0346FB71FB79012B02D176
:10450800224B01221A70214B1B78002B25D0102139
:104518001F48FFF75BFC0346012B06D001211D480D
:10452800FFF754FC0346012B17D10A20FFF79AFE28
:10453800164B00221A7010211548FFF747FC034656
:10454800012B01D101231CE001211248FFF73EFC99
:104558000346012B13D1042313E010210C48FFF765
:1045680035FC0346002B0BD101210A48FFF72EFC2E
:104578000346002B04D1054B01221A7000E000BF4E
:10458800002318460837BD4680BD00BF0400002040
:10459800001002400000024080B584B000AF78608F
:1045A800114B124A1A60104B53225A600E4B0022CC
:1045B8009A607B68013B0C4AD3600B4B00221A615E
:1045C8000948FEF76BF82023BB600023FB6007F166
:1045D800080319460448FEF779F90348FEF7A3F8DB
:1045E80000BF1037BD4680BD98020020000400407F
:1045F80080B485B000AF78607B681B68144A93422A
:104608000ED10023FB60134B1B6C124A43F00203CC
:104618001364104B1B6C03F00203FB60FB6812E091
:104628007B681B680C4A93420DD10023BB60094B81
:104638001B6C084A43F010031364064B1B6C03F011
:104648001003BB60BB6800BF1437BD4680BC704711
:1046580000040040003802400010004080B588B0D7
:1046680000AF78603D4A7B68B2FBF3F3FB61F86901
:10467800FFF792FF3A4B3B4A1A60394B4FF48032AE
:104688005A60374B00229A60354B0022DA60344B6F
:1046980000221A61324B00225A61314B00229A6182
:1046A8002F4B0122DA612E4B00221A622C4B00227A
:1046B8005A622B4B4FF000629A62294B4FF080529E
:1046C800DA62274B01221A632548FCF7FBFB052316
:1046D800FB6001233B6101237B610023BB6107F180
:1046E8000C0319461E48FCF769FD1F4B1F4A1A6048
:1046F8001D4B00225A601C4B00229A601A4B002264
:10470800DA60194B4FF480621A61174B4FF400625C
:104718005A61154B4FF400529A61134B4FF4807253
:10472800DA61114B4FF400321A620F4B00225A62C1
:104738000D48FEF70FF90A4B0B4A9A630A4B084AD1
:104748009A63002201213820FFF763FC3820FFF725
:104758007CFC00BF2037BD4680BD00BF40420F0033
:104768005002002000200140D402002010640240C2
:1047780080B58AB000AF786000233B611B4B5B6C4F
:104788001A4A43F480735364184B5B6C03F48073C8
:104798003B613B690023FB60144B1B6B134A43F0DE
:1047A80001031363114B1B6B03F00103FB60FB68F0
:1047B8000023BB600D4B1B6B0C4A43F4800313634F
:1047C8000A4B1B6B03F48003BB60BB6820237B612F
:1047D8000323BB610023FB6107F114031946044856
:1047E800FFF75AF900BF2837BD4680BD00380240A0
:1047F8000000024080B500AF0848FDF794FF084864
:10480800FCF776FC4FF4806206490548FCF79EFBEE
:104818000248FDF76EFF00BF80BD00BF9802002070
:10482800500200203403002080B500AF0348FDF794
:104838007AFF0348FCF75CFC00BF80BD98020020AB
:104848005002002080B400AF024B1846BD4680BC21
:10485800704700BF3403002080B400AF4FF480637A
:104868001846BD4680BC704790B583B000AF0023A2
:10487800FB8076E0FB8807EE903AF8EEE77A9FED4A
:10488800407A27EE877ADFED3F6AC7EE267AC7EDD2
:10489800007A3868FBF702FF02460B4643EC102B00
:1048A80000F036FA51EC100B4FF00002364BFBF7D4
:1048B80097FD02460B46104619462FA3D3E900235D
:1048C800FBF75EFC02460B46FC8810461946FBF7D0
:1048D8003DFF03462D4A42F82430FB88B3F5007F9C
:1048E80015D2FB8807EE903AF8EEE77A9FED287A22
:1048F80027EE877ADFED276AC7EE267AFB88FCEE7B
:10490800E77A17EE901A244A42F823101AE0FB8837
:10491800A3F5007307EE903AF8EEE77A9FED1C7A5C
:1049280027EE877ADFED1B6AC7EE267A9FED187AA5
:1049380077EE677AFB88FCEEE77A17EE901A164A4C
:1049480042F82310FB88B3F5007F02D240F6FF72CD
:1049580000E00022FB88114941F82320FB8801333D
:10496800FB80FB88B3F5806F84D300BF00BF0C3792
:10497800BD4690BDAFF300800000000000FE9F40E0
:10498800DA0FC940000080440000F03FE40B00202B
:1049980000F07F4500000044E41B0020E42B0020C9
:1049A80080B586B000AF78607B689B023B61154A92
:1049B8003B69B2FBF3F37B617B69002B01D10123D7
:1049C8007B61114B114A1A600F4B00225A600E4B43
:1049D80000229A607B69013B0B4AD3600A4B002294
:1049E8001A610948FDF75AFE2023BB600023FB60CB
:1049F80007F1080319460448FDF768FF00BF183798
:104A0800BD4680BD00BD0105480B002000100040D8
:104A180080B584B000AF7860FFF726FF7868FFF7AD
:104A2800BFFF0A4B0A4A1A600848FCF76FFE0423C6
:104A3800BB600023FB6007F1080300221946034806
:104A4800FCF79EFF00BF1037BD4680BD340B002029
:104A58000074004080B58AB000AF786000233B61E5
:104A6800334B1B6C324A43F000531364304B1B6CBE
:104A780003F000533B613B690023FB602C4B1B6B2D
:104A88002B4A43F001031363294B1B6B03F001030B
:104A9800FB60FB680023BB60254B1B6B244A43F477
:104AA80000131363224B1B6B03F40013BB60BB683A
:104AB80010237B610323BB610023FB6107F114030F
:104AC80019461C48FEF7E8FF1B4B1C4A1A601A4B94
:104AD8004FF060625A60184B40229A60164B0022D1
:104AE800DA60154B4FF480621A61134B4FF4805211
:104AF8005A61114B4FF480429A610F4B4FF4807208
:104B0800DA610D4B4FF400321A620B4B00225A62E5
:104B18000948FDF71FFF7B68074A9A60064A7B68C9
:104B280093631020FFF79FFA00BF2837BD4680BD6A
:104B38000038024000000240840B002088600240D8
:104B480080B500AF0248FEF7A5F800BF80BD00BFE2
:104B5800840B002080B586B002AF0346FB71FB7959
:104B6800022B0CD0022B0DDC002B02D0012B03D022
:104B780008E0114BFB6007E0104BFB6004E0104BB2
:104B8800FB6001E00C4BFB600E48FDF7CCFD0021FB
:104B98000D48FCF799FE002300934FF48063FA68F0
:104BA80000210948FCF7D4FD0648FDF7A2FD00BF27
:104BB8001037BD4680BD00BFE40B0020E41B002079
:104BC800E42B0020480B0020340B002080B500AFF8
:104BD80000210448FCF778FE0348FDF7A4FD00BF58
:104BE80080BD00BF340B0020480B002070B50E4E6E
:104BF8000E4DAE4208D0761BB610002455F8043B83
:104C080001349847A642F9D8094E0A4D01F064FAD2
:104C1800AE4208D0761BB610002455F8043B013488
:104C28009847A642F9D870BDF0620008F062000803
:104C3800F8620008F0620008704700BF704700BFC4
:104C4800024B13B1024800F005B87047000000009D
:104C5800694C0008002301461A46184600F014B8AB
:104C680038B5074D074C2C1BA41005D0013C55F84E
:104C7800043D9847002CF9D1BDE8384001F032BA1C
:104C8800FC620008F8620008F0B51D4C83B00546C8
:104C98002068019116461F46FFF7CEFF194A019971
:104CA800136823B35A6820681F2A23DC4DB9541CA3
:104CB80002325C6043F82210FFF7C0FF002003B007
:104CC800F0BD03EB820E0124CEF88860D3F888612A
:104CD800944046EA040C022DC3F888C1CEF8087146
:104CE800E5D1D3F88C512543C3F88C51DFE7064B47
:104CF8001360D7E7FFF7A2FF4FF0FF30DFE700BFF1
:104D080008000020E83B0020EC3B002000000000E9
:104D180000B587B08DED000B019B214A23F00043BD
:104D280093421ED91F4A9342DDE9000107D9024682
:104D38000B46FBF753FB41EC100B07B000BD02A874
:104D480000F03EFA00F0030001289DED020B9DEDF6
:104D5800041B19D002280CD0C8B9012000F064F94E
:104D6800EBE79FED0D1B002007B05DF804EB00F0AA
:104D78005BB9012000F058F953EC102B03F1004304
:104D880000EE903A07B000BD00F00EF8D5E700F04D
:104D98000BF8F1E7AFF3008000000000000000000E
:104DA800FB21E93FFFFFEF7F2DE9F04F57EC106B38
:104DB8002DED028BB0EE418AF0EE618A27F00048B3
:104DC800B8F1795F83B071D230463946FBF766FD9A
:104DD800002800F0F48032463B4630463946FBF75F
:104DE800CFF97BA3D3E9002304460D46FBF7C8F9A6
:104DF80079A3D3E90023FBF7F3FA22462B46FBF706
:104E0800BFF977A3D3E90023FBF7E8FA22462B463C
:104E1800FBF7B6F974A3D3E90023FBF7E1FA2246BE
:104E28002B46FBF7ADF972A3D3E90023FBF7D6FABB
:104E380022462B46FBF7A4F96FA3D3E90023FBF71F
:104E4800CFFA22462B46FBF79BF982468B46704BDE
:104E5800002220462946FBF793F9524680468946A8
:104E68005B4620462946FBF78BF953EC182B044682
:104E78000D4630463946FBF783F902460B46204675
:104E88002946FBF7ABFA02460B4640464946FBF774
:104E9800A5FA02460B4600205E49FBF79FFA41EC53
:104EA800100B03B0BDEC028BBDE8F08F32463B46D9
:104EB80030463946FBF764F945A3D3E90023044695
:104EC8000D46FBF75DF944A3D3E90023FBF788FA05
:104ED80022462B46FBF754F941A3D3E90023FBF7FD
:104EE8007DFA22462B46FBF74BF93FA3D3E9002373
:104EF800FBF776FA22462B46FBF742F93CA3D3E9A7
:104F08000023FBF76BFA22462B46FBF739F93AA345
:104F1800D3E90023FBF764FA2B462246FBF730F966
:104F28003D4B984582468B4691D93C4B98453DD898
:104F3800A8F5001300223749002090469946FBF750
:104F48004DFACDE90001324B002220462946FBF7F5
:104F580017F942464B46FBF741FA524680468946C6
:104F68005B4620462946FBF70BF953EC182B044601
:104F78000D4630463946FBF703F902460B462046F4
:104F88002946FBF72BFA02460B4640464946FBF7F3
:104F980025FA02460B46DDE90001FBF71FFA41EC52
:104FA800100B03B0BDEC028BBDE8F08F9FED147BB6
:104FB800DFF86C908DED007B4FF00008C3E79FEDA4
:104FC800120B03B0BDEC028BBDE8F08FAFF300808D
:104FD800D43888BEE9FAA8BDC4B1B4BD9EEE213E5E
:104FE800AD529C804F7E923E9015CB19A001FA3E9F
:104FF8007751C1166CC1563F4C5555555555A53F6F
:10500800000000000000E73F000000000000F03F43
:105018000000E03F0000F03F3233D33F0000E93F9B
:105028000000D23F000000002DE9F04F55EC104B76
:105038002DED028BB0EE418AF0EE618A25F0004337
:10504800B3F1795F83B0824606D220462946FBF742
:1050580025FC002800F0908022462B462046294651
:10506800FBF78EF806460F4602460B4620462946B1
:10507800FBF786F847A3D3E90023804689463046E4
:105088003946FBF77DF845A3D3E90023FBF7A6F9DA
:1050980032463B46FBF774F842A3D3E90023FBF7FB
:1050A8009FF932463B46FBF76BF840A3D3E9002350
:1050B800FBF794F932463B46FBF762F83DA3D3E988
:1050C8000023FBF78DF90A460146CDE90012BAF133
:1050D800000F37D02E4B51EC180B0022FBF750F87D
:1050E800DDE9002382468B4640464946FBF748F8EF
:1050F80002460B4650465946FBF770F932463B4686
:10510800FBF73EF853EC182BFBF768F91EA3D3E91D
:10511800002306460F4640464946FBF731F802464B
:105128000B4630463946FBF75BF902460B462046EC
:105138002946FBF753F941EC100B03B0BDEC028B89
:10514800BDE8F08F1346394602463046FBF718F89B
:105158000DA3D3E90023FBF741F942464B46FBF781
:105168000FF822462B46FBF73BF941EC100B03B036
:10517800BDEC028BBDE8F08F45EC104B03B0BDECE5
:10518800028BBDE8F08F00BF495555555555C53FB1
:105198000000E03F7CD5CF5A3AD9E53DEB9C2B8AFD
:1051A800E6E55A3E7DFEB157E31DC73ED561C119FC
:1051B800A0012A3FA6F810111111813F000000003C
:1051C8002DE9F04FB0EE407AF0EE607A17EE907A63
:1051D800BD4B27F000459D428DB040F29180BB4BFE
:1051E8009D42044651EC100B28D8002FACA3D3E9FC
:1051F800002340F3B281FBF7F1F8B54B9D4280469E
:10520800894600F09180A8A3D3E90023FBF7E6F8CC
:1052180006460F4632463B4640464946FBF7DEF80F
:10522800A1A3D3E90023FBF7D9F8C4E90201C4E933
:105238000067012630460DB0BDE8F08FA54B9D42B2
:1052480040F28C80A44B9D4265D829150246A1F2F4
:105258001640A5EB005319468046104615461E46D3
:10526800FBF71CFBFBF708FA02460B4628463146BB
:10527800CDE90623FBF7B2F8984B0022FAF780FF36
:105288000E460546FBF70AFBFBF7F6F902460B4606
:1052980028463146CDE90823FBF7A0F88F4B0022BA
:1052A800FAF76EFFCDE90A010CAD0326A14675E9B0
:1052B8000201002200233446013EFBF7BDFA002814
:1052C800F5D1874A01920222009223464246494676
:1052D80006A800F09DF9002F0646ABDAD9F80410AD
:1052E800D9F8002001F10043D9F80C10C9E90023CE
:1052F800D9F8082001F10043C9E90223464299E799
:105308000022002380ED000BC0E90223002630466E
:105318000DB0BDE8F08F02460B46FBF75FF8C4E915
:105328000201C4E90001F1E761A3D3E90023FBF717
:1053380055F861A3D3E9002380468946FBF74EF868
:1053480006460F4632463B4640464946FBF746F876
:1053580059A3D3E90023FBF741F866E700F04EF9BB
:1053680059EC108B56A3D3E9002340464946FAF777
:1053780007FF5C4B0022FBF733F8FBF78FFA064672
:10538800FBF77AF946A3D3E9002382468B46CDE999
:1053980004ABFAF7F5FE02460B4640464946FBF7D2
:1053A8001DF841A3D3E90023804689465046594653
:1053B800FAF7E6FE02460B4640464946CDE9022387
:1053C800FBF70CF81F2E82468B4608DC464B721EF4
:1053D80053F82230AB4202D0C4E900AB45E0CBF32E
:1053E8000A53C3EB1553102BF6DD31A3D3E9002381
:1053F800DDE90401FAF7C4FE02460B464046494679
:10540800CDE90223FAF7EAFFC246CB468046894631
:105418005046594642464B46FAF7E0FFDDE902237B
:10542800FAF7DCFF24A3D3E9002382468B46DDE9A3
:105438000401FAF7A5FE52465B46FAF7CFFF02468B
:105448000B4640464946CDE90223FAF7C7FF0A460C
:10545800C2F30A53C3EB2553312B014682469346C8
:1054680044DC42EC171B84ED007B52465B46404609
:105478004946FAF7B3FFDDE90223FAF7AFFF002F39
:10548800C4E90201BFF6D6AE0BF10043C4E900A39C
:1054980001F10043C4E902037642CBE6AFF3008092
:1054A80000004054FB21F93F3163621A61B4D03DDA
:1054B8000000601A61B4D03D7370032E8A19A33BB3
:1054C80083C8C96D305FE43FFB21E93F7BD90240C7
:1054D800FB21F93FFB213941FFFFEF7F00007041BD
:1054E800986100080000E03F186100083FA3D3E975
:1054F8000023DDE90401FAF743FE02460B46404665
:105508004946CDE90223FAF769FFC246CB468046F1
:1055180089465046594642464B46FAF75FFFDDE951
:105528000223FAF75BFF33A3D3E9002382468B46B5
:10553800DDE90401FAF724FE52465B46FAF74EFF0E
:1055480002460B4640464946CDE90223FAF746FF94
:10555800C4E9000182468B4687E7FAF741FF224BF0
:105568009D428046894618D019A3D3E90023FAF74B
:1055780037FF06460F4632463B4640464946FAF74D
:105588002DFF13A3D3E90023FAF72AFFC4E9006724
:10559800C4E902014FF0FF364CE60FA3D3E900231C
:1055A800FAF71EFF0EA3D3E9002380468946FAF7CF
:1055B80017FF06460F4632463B4640464946FAF72D
:1055C8000DFF07A3D3E90023FAF70AFFDEE700BFC0
:1055D8003163621A61B4D03D0000601A61B4D03DF5
:1055E8007370032E8A19A33BFB21F93F0000002E9C
:1055F8008A19A33BC14920259A837B3910EE901A5A
:1056080053EC102B21F0004343EC102B704700BFE4
:105618002DE9F04FADF51B7D9C460D91C04BA4992B
:10562800059053F82130069312F1140F0CF1FF3353
:105638000493C0F2A682BB49D31E81FB0301DB178A
:10564800C3EBA10309930133A3EB8303DB00D31856
:105658000793069B0CF1FF329E1820D4099BA59F47
:105668000CF1FF3201369C1A264422AD4FF0000897
:105678004FF00009E24608E057F82400FAF7FCFF6B
:105688000134B442E5E8020108D0002CF4DA013410
:1056980040464946B442E5E80201F6D1D446069BA5
:1056A800002BC0F2E182049A069B002A0DF5E47BE8
:1056B80091466344C0F2C882059A00930DF1880AA6
:1056C8004FEACC0602EBCC085A4603960AEBCC0B01
:1056D800CDF820C09246059E5F460024002577E954
:1056E8000223F6E80201FAF74BFD02460B46204674
:1056F8002946FAF775FE464504460D46EFD1009B4C
:1057080009F101099945EAE802450BF1080BE2D1D4
:10571800039EDDF820C0059BCDF830C003EB060AD8
:10572800069BCDF82CA00DA90EAA01EB83010A91C6
:105738009B4602EB830A0DEBCB03BBF1000FD3E9C9
:1057480072454FEACB0730DD72AE06EB07080397C8
:105758000DF13809CDF800B05746734B00222046AA
:105768002946FAF70DFDFBF799F8FAF785FF6F4B15
:10577800002282468B46FAF703FD02460B46204676
:105788002946FAF72BFEFBF789F878E9022349F84E
:10579800040B59465046FAF723FEB04504460D4619
:1057A800DBD1BA46DDF800B0039F079E45EC104BED
:1057B800304600F075FB55EC104B00224FF07F533C
:1057C80020462946FAF7DCFC41EC100B00F000FCFF
:1057D800574B51EC100B0022FAF7D2FC02460B464D
:1057E80020462946FAF7FAFD0D460446FBF756F817
:1057F8008046FAF741FF02460B4620462946FAF74B
:10580800EDFD002E02460B46CDE9002340F39280C1
:105818000BF1FF310EAAC6F1180352F8212042FA03
:1058280003F000FA03F3D21AC6F1170442FA04F49B
:105838000EAB002C43F82120804400F38580DDE97D
:10584800000100220023FAF7F7FF002800F0868203
:10585800069B9B450EDD0EAB4FEA8B0003EB8B03DB
:10586800002253F8041D534542EA0102F9D1002AE7
:1058780040F0D280069B0EAA013B0BF1010952F8B9
:105888002330002B40F0C6800A9A012352F8041DE9
:1058980001330029FAD00BEB030C099BCDF80CC09F
:1058A80003EB0B010C9BCDF820A003EB0B02A59B8F
:1058B800DDF82CB003EB810300930DF1880874AB7D
:1058C80008EBC2081F44009B53F8040F0093FAF733
:1058D800D3FE049B002BE8E802011EDB059EC246AE
:1058E800002400257AE90223F6E80201FAF748FCC9
:1058F80002460B4620462946FAF772FD5E450446E5
:105908000D46EFD1039B09F101099945E7E80245E6
:10591800D9DDDDF820A09B460DE700240025F1E73E
:10592800E0620008ABAAAA2A0000703E000070419D
:105938000000204054D0A04B0022FAF79BFF00281B
:1059480040F0248104467AE7BBF1000F08F1010812
:1059580040F369820EAB002153F8045B85BB01312B
:105968008B45F9DC079B002B0EDD012B00F0FE8038
:10597800022B09D10BF1FF320EAB0EA953F82230DE
:10598800C3F3150341F82230022C7FF458AFDDE948
:1059980000238A490020FAF721FDCDE90001002DF6
:1059A8003FF44DAF07989FED820B00F079FADDE9DF
:1059B800000153EC102BFAF711FDCDE900013EE789
:1059C800C5F1807543F8045C6FF07F4003E01A6806
:1059D800821A43F8042B01318B45F8DC0125C1E715
:1059E8000BF1FF330EAA52F82340E415002C7FF781
:1059F80026AFBBF1000F08F10108ABDC022C7FF4E5
:105A08001EAFDDE900236D490020FAF7E7FCCDE978
:105A1800000114E7CC4640E7079BCDF82080A3F1AE
:105A280018020BF1FF390EAB059453F82930079291
:105A38004BB90DAB034453F8041D09F1FF39183A6B
:105A48000029F8D007929FED5A0B079800F028FA22
:105A5800B9F1000F55EC104BC0F2F1810FAE74AFE5
:105A68004FEAC903DFF858B1079306EB890607EB3D
:105A7800C9070DF5E4784FF0000A56F8040DFAF757
:105A8800FBFD22462B46FAF77BFB5B4667E90201E2
:105A9800524620462946FAF773FB0EAB9E4204464F
:105AA8000D46EAD1079BCDF8249008EB030B494635
:105AB8004AABDDF8189004931A464FF0000A5B468B
:105AC8008B46B9F1000FC0F2BC80CDF80CB0DFF8FE
